{
	"data": {
		"bytecode": {
			"linkReferences": {},
			"object": "608060405234801561001057600080fd5b50336000806101000a81548173ffffffffffffffffffffffffffffffffffffffff021916908373ffffffffffffffffffffffffffffffffffffffff160217905550610a6c806100606000396000f3fe608060405234801561001057600080fd5b50600436106100575760003560e01c8063383bebae1461005c578063398dfa7914610078578063a45e3a2814610096578063ca981d91146100b4578063deafddae146100d0575b600080fd5b610076600480360361007191908101906105c4565b610100565b005b610080610212565b60405161008d9190610809565b60405180910390f35b61009e61038c565b6040516100ab91906107ee565b60405180910390f35b6100ce60048036036100c99190810190610583565b6103b1565b005b6100ea60048036036100e59190810190610583565b610427565b6040516100f79190610896565b60405180910390f35b336000809054906101000a900473ffffffffffffffffffffffffffffffffffffffff1673ffffffffffffffffffffffffffffffffffffffff168173ffffffffffffffffffffffffffffffffffffffff1614610190576040517f08c379a000000000000000000000000000000000000000000000000000000000815260040161018790610876565b60405180910390fd5b6000836040516020016101a391906107d7565b6040516020818303038152906040528051906020012090508260016000838152602001908152602001600020819055507f1decb51588158e4fd9a593e42935e33c4641f4958a08256e305bf6dec1092d8f818460405161020492919061082b565b60405180910390a150505050565b6060336000809054906101000a900473ffffffffffffffffffffffffffffffffffffffff1673ffffffffffffffffffffffffffffffffffffffff168173ffffffffffffffffffffffffffffffffffffffff16146102a4576040517f08c379a000000000000000000000000000000000000000000000000000000000815260040161029b90610876565b60405180910390fd5b6002805480602002602001604051908101604052809291908181526020016000905b82821015610382578382906000526020600020018054600181600116156101000203166002900480601f01602080910402602001604051908101604052809291908181526020018280546001816001161561010002031660029004801561036e5780601f106103435761010080835404028352916020019161036e565b820191906000526020600020905b81548152906001019060200180831161035157829003601f168201915b5050505050815260200190600101906102c6565b5050505091505090565b6000809054906101000a900473ffffffffffffffffffffffffffffffffffffffff1681565b6002819080600181540180825580915050600190039060005260206000200160009091909190915090805190602001906103ec929190610475565b507fafd73f39162aa4c0421f362f3a3d26f44b23c73253256cfc1c68794b0973e0a08160405161041c9190610854565b60405180910390a150565b6000808260405160200161043b91906107d7565b6040516020818303038152906040528051906020012090506000600160008381526020019081526020016000205490508092505050919050565b828054600181600116156101000203166002900490600052602060002090601f016020900481019282601f106104b657805160ff19168380011785556104e4565b828001600101855582156104e4579182015b828111156104e35782518255916020019190600101906104c8565b5b5090506104f191906104f5565b5090565b61051791905b808211156105135760008160009055506001016104fb565b5090565b90565b600082601f83011261052b57600080fd5b813561053e610539826108de565b6108b1565b9150808252602083016020830185838301111561055a57600080fd5b6105658382846109cc565b50505092915050565b60008135905061057d81610a1f565b92915050565b60006020828403121561059557600080fd5b600082013567ffffffffffffffff8111156105af57600080fd5b6105bb8482850161051a565b91505092915050565b600080604083850312156105d757600080fd5b600083013567ffffffffffffffff8111156105f157600080fd5b6105fd8582860161051a565b925050602061060e8582860161056e565b9150509250929050565b60006106248383610729565b905092915050565b61063581610986565b82525050565b60006106468261091a565b6106508185610948565b9350836020820285016106628561090a565b8060005b8581101561069e578484038952815161067f8582610618565b945061068a8361093b565b925060208a01995050600181019050610666565b50829750879550505050505092915050565b6106b981610998565b82525050565b60006106ca82610930565b6106d4818561096a565b93506106e48185602086016109db565b6106ed81610a0e565b840191505092915050565b600061070382610930565b61070d818561097b565b935061071d8185602086016109db565b80840191505092915050565b600061073482610925565b61073e8185610959565b935061074e8185602086016109db565b61075781610a0e565b840191505092915050565b600061076f602d8361096a565b91507f4e6f207469656e6573207065726d69736f73207061726120656a65637574617260008301527f20657374612066756e63696f6e000000000000000000000000000000000000006020830152604082019050919050565b6107d1816109c2565b82525050565b60006107e382846106f8565b915081905092915050565b6000602082019050610803600083018461062c565b92915050565b60006020820190508181036000830152610823818461063b565b905092915050565b600060408201905061084060008301856106b0565b61084d60208301846107c8565b9392505050565b6000602082019050818103600083015261086e81846106bf565b905092915050565b6000602082019050818103600083015261088f81610762565b9050919050565b60006020820190506108ab60008301846107c8565b92915050565b6000604051905081810181811067ffffffffffffffff821117156108d457600080fd5b8060405250919050565b600067ffffffffffffffff8211156108f557600080fd5b601f19601f8301169050602081019050919050565b6000819050602082019050919050565b600081519050919050565b600081519050919050565b600081519050919050565b6000602082019050919050565b600082825260208201905092915050565b600082825260208201905092915050565b600082825260208201905092915050565b600081905092915050565b6000610991826109a2565b9050919050565b6000819050919050565b600073ffffffffffffffffffffffffffffffffffffffff82169050919050565b6000819050919050565b82818337600083830152505050565b60005b838110156109f95780820151818401526020810190506109de565b83811115610a08576000848401525b50505050565b6000601f19601f8301169050919050565b610a28816109c2565b8114610a3357600080fd5b5056fea26469706673582212201f56aa69ab421822ba2addad690bad9a90b1b3f1b3e541531ede4d0f2d571d7d64736f6c63430006000033",
			"opcodes": "PUSH1 0x80 PUSH1 0x40 MSTORE CALLVALUE DUP1 ISZERO PUSH2 0x10 JUMPI PUSH1 0x0 DUP1 REVERT JUMPDEST POP CALLER PUSH1 0x0 DUP1 PUSH2 0x100 EXP DUP2 SLOAD DUP2 PUSH20 0xFFFFFFFFFFFFFFFFFFFFFFFFFFFFFFFFFFFFFFFF MUL NOT AND SWAP1 DUP4 PUSH20 0xFFFFFFFFFFFFFFFFFFFFFFFFFFFFFFFFFFFFFFFF AND MUL OR SWAP1 SSTORE POP PUSH2 0xA6C DUP1 PUSH2 0x60 PUSH1 0x0 CODECOPY PUSH1 0x0 RETURN INVALID PUSH1 0x80 PUSH1 0x40 MSTORE CALLVALUE DUP1 ISZERO PUSH2 0x10 JUMPI PUSH1 0x0 DUP1 REVERT JUMPDEST POP PUSH1 0x4 CALLDATASIZE LT PUSH2 0x57 JUMPI PUSH1 0x0 CALLDATALOAD PUSH1 0xE0 SHR DUP1 PUSH4 0x383BEBAE EQ PUSH2 0x5C JUMPI DUP1 PUSH4 0x398DFA79 EQ PUSH2 0x78 JUMPI DUP1 PUSH4 0xA45E3A28 EQ PUSH2 0x96 JUMPI DUP1 PUSH4 0xCA981D91 EQ PUSH2 0xB4 JUMPI DUP1 PUSH4 0xDEAFDDAE EQ PUSH2 0xD0 JUMPI JUMPDEST PUSH1 0x0 DUP1 REVERT JUMPDEST PUSH2 0x76 PUSH1 0x4 DUP1 CALLDATASIZE SUB PUSH2 0x71 SWAP2 SWAP1 DUP2 ADD SWAP1 PUSH2 0x5C4 JUMP JUMPDEST PUSH2 0x100 JUMP JUMPDEST STOP JUMPDEST PUSH2 0x80 PUSH2 0x212 JUMP JUMPDEST PUSH1 0x40 MLOAD PUSH2 0x8D SWAP2 SWAP1 PUSH2 0x809 JUMP JUMPDEST PUSH1 0x40 MLOAD DUP1 SWAP2 SUB SWAP1 RETURN JUMPDEST PUSH2 0x9E PUSH2 0x38C JUMP JUMPDEST PUSH1 0x40 MLOAD PUSH2 0xAB SWAP2 SWAP1 PUSH2 0x7EE JUMP JUMPDEST PUSH1 0x40 MLOAD DUP1 SWAP2 SUB SWAP1 RETURN JUMPDEST PUSH2 0xCE PUSH1 0x4 DUP1 CALLDATASIZE SUB PUSH2 0xC9 SWAP2 SWAP1 DUP2 ADD SWAP1 PUSH2 0x583 JUMP JUMPDEST PUSH2 0x3B1 JUMP JUMPDEST STOP JUMPDEST PUSH2 0xEA PUSH1 0x4 DUP1 CALLDATASIZE SUB PUSH2 0xE5 SWAP2 SWAP1 DUP2 ADD SWAP1 PUSH2 0x583 JUMP JUMPDEST PUSH2 0x427 JUMP JUMPDEST PUSH1 0x40 MLOAD PUSH2 0xF7 SWAP2 SWAP1 PUSH2 0x896 JUMP JUMPDEST PUSH1 0x40 MLOAD DUP1 SWAP2 SUB SWAP1 RETURN JUMPDEST CALLER PUSH1 0x0 DUP1 SWAP1 SLOAD SWAP1 PUSH2 0x100 EXP SWAP1 DIV PUSH20 0xFFFFFFFFFFFFFFFFFFFFFFFFFFFFFFFFFFFFFFFF AND PUSH20 0xFFFFFFFFFFFFFFFFFFFFFFFFFFFFFFFFFFFFFFFF AND DUP2 PUSH20 0xFFFFFFFFFFFFFFFFFFFFFFFFFFFFFFFFFFFFFFFF AND EQ PUSH2 0x190 JUMPI PUSH1 0x40 MLOAD PUSH32 0x8C379A000000000000000000000000000000000000000000000000000000000 DUP2 MSTORE PUSH1 0x4 ADD PUSH2 0x187 SWAP1 PUSH2 0x876 JUMP JUMPDEST PUSH1 0x40 MLOAD DUP1 SWAP2 SUB SWAP1 REVERT JUMPDEST PUSH1 0x0 DUP4 PUSH1 0x40 MLOAD PUSH1 0x20 ADD PUSH2 0x1A3 SWAP2 SWAP1 PUSH2 0x7D7 JUMP JUMPDEST PUSH1 0x40 MLOAD PUSH1 0x20 DUP2 DUP4 SUB SUB DUP2 MSTORE SWAP1 PUSH1 0x40 MSTORE DUP1 MLOAD SWAP1 PUSH1 0x20 ADD KECCAK256 SWAP1 POP DUP3 PUSH1 0x1 PUSH1 0x0 DUP4 DUP2 MSTORE PUSH1 0x20 ADD SWAP1 DUP2 MSTORE PUSH1 0x20 ADD PUSH1 0x0 KECCAK256 DUP2 SWAP1 SSTORE POP PUSH32 0x1DECB51588158E4FD9A593E42935E33C4641F4958A08256E305BF6DEC1092D8F DUP2 DUP5 PUSH1 0x40 MLOAD PUSH2 0x204 SWAP3 SWAP2 SWAP1 PUSH2 0x82B JUMP JUMPDEST PUSH1 0x40 MLOAD DUP1 SWAP2 SUB SWAP1 LOG1 POP POP POP POP JUMP JUMPDEST PUSH1 0x60 CALLER PUSH1 0x0 DUP1 SWAP1 SLOAD SWAP1 PUSH2 0x100 EXP SWAP1 DIV PUSH20 0xFFFFFFFFFFFFFFFFFFFFFFFFFFFFFFFFFFFFFFFF AND PUSH20 0xFFFFFFFFFFFFFFFFFFFFFFFFFFFFFFFFFFFFFFFF AND DUP2 PUSH20 0xFFFFFFFFFFFFFFFFFFFFFFFFFFFFFFFFFFFFFFFF AND EQ PUSH2 0x2A4 JUMPI PUSH1 0x40 MLOAD PUSH32 0x8C379A000000000000000000000000000000000000000000000000000000000 DUP2 MSTORE PUSH1 0x4 ADD PUSH2 0x29B SWAP1 PUSH2 0x876 JUMP JUMPDEST PUSH1 0x40 MLOAD DUP1 SWAP2 SUB SWAP1 REVERT JUMPDEST PUSH1 0x2 DUP1 SLOAD DUP1 PUSH1 0x20 MUL PUSH1 0x20 ADD PUSH1 0x40 MLOAD SWAP1 DUP2 ADD PUSH1 0x40 MSTORE DUP1 SWAP3 SWAP2 SWAP1 DUP2 DUP2 MSTORE PUSH1 0x20 ADD PUSH1 0x0 SWAP1 JUMPDEST DUP3 DUP3 LT ISZERO PUSH2 0x382 JUMPI DUP4 DUP3 SWAP1 PUSH1 0x0 MSTORE PUSH1 0x20 PUSH1 0x0 KECCAK256 ADD DUP1 SLOAD PUSH1 0x1 DUP2 PUSH1 0x1 AND ISZERO PUSH2 0x100 MUL SUB AND PUSH1 0x2 SWAP1 DIV DUP1 PUSH1 0x1F ADD PUSH1 0x20 DUP1 SWAP2 DIV MUL PUSH1 0x20 ADD PUSH1 0x40 MLOAD SWAP1 DUP2 ADD PUSH1 0x40 MSTORE DUP1 SWAP3 SWAP2 SWAP1 DUP2 DUP2 MSTORE PUSH1 0x20 ADD DUP3 DUP1 SLOAD PUSH1 0x1 DUP2 PUSH1 0x1 AND ISZERO PUSH2 0x100 MUL SUB AND PUSH1 0x2 SWAP1 DIV DUP1 ISZERO PUSH2 0x36E JUMPI DUP1 PUSH1 0x1F LT PUSH2 0x343 JUMPI PUSH2 0x100 DUP1 DUP4 SLOAD DIV MUL DUP4 MSTORE SWAP2 PUSH1 0x20 ADD SWAP2 PUSH2 0x36E JUMP JUMPDEST DUP3 ADD SWAP2 SWAP1 PUSH1 0x0 MSTORE PUSH1 0x20 PUSH1 0x0 KECCAK256 SWAP1 JUMPDEST DUP2 SLOAD DUP2 MSTORE SWAP1 PUSH1 0x1 ADD SWAP1 PUSH1 0x20 ADD DUP1 DUP4 GT PUSH2 0x351 JUMPI DUP3 SWAP1 SUB PUSH1 0x1F AND DUP3 ADD SWAP2 JUMPDEST POP POP POP POP POP DUP2 MSTORE PUSH1 0x20 ADD SWAP1 PUSH1 0x1 ADD SWAP1 PUSH2 0x2C6 JUMP JUMPDEST POP POP POP POP SWAP2 POP POP SWAP1 JUMP JUMPDEST PUSH1 0x0 DUP1 SWAP1 SLOAD SWAP1 PUSH2 0x100 EXP SWAP1 DIV PUSH20 0xFFFFFFFFFFFFFFFFFFFFFFFFFFFFFFFFFFFFFFFF AND DUP2 JUMP JUMPDEST PUSH1 0x2 DUP2 SWAP1 DUP1 PUSH1 0x1 DUP2 SLOAD ADD DUP1 DUP3 SSTORE DUP1 SWAP2 POP POP PUSH1 0x1 SWAP1 SUB SWAP1 PUSH1 0x0 MSTORE PUSH1 0x20 PUSH1 0x0 KECCAK256 ADD PUSH1 0x0 SWAP1 SWAP2 SWAP1 SWAP2 SWAP1 SWAP2 POP SWAP1 DUP1 MLOAD SWAP1 PUSH1 0x20 ADD SWAP1 PUSH2 0x3EC SWAP3 SWAP2 SWAP1 PUSH2 0x475 JUMP JUMPDEST POP PUSH32 0xAFD73F39162AA4C0421F362F3A3D26F44B23C73253256CFC1C68794B0973E0A0 DUP2 PUSH1 0x40 MLOAD PUSH2 0x41C SWAP2 SWAP1 PUSH2 0x854 JUMP JUMPDEST PUSH1 0x40 MLOAD DUP1 SWAP2 SUB SWAP1 LOG1 POP JUMP JUMPDEST PUSH1 0x0 DUP1 DUP3 PUSH1 0x40 MLOAD PUSH1 0x20 ADD PUSH2 0x43B SWAP2 SWAP1 PUSH2 0x7D7 JUMP JUMPDEST PUSH1 0x40 MLOAD PUSH1 0x20 DUP2 DUP4 SUB SUB DUP2 MSTORE SWAP1 PUSH1 0x40 MSTORE DUP1 MLOAD SWAP1 PUSH1 0x20 ADD KECCAK256 SWAP1 POP PUSH1 0x0 PUSH1 0x1 PUSH1 0x0 DUP4 DUP2 MSTORE PUSH1 0x20 ADD SWAP1 DUP2 MSTORE PUSH1 0x20 ADD PUSH1 0x0 KECCAK256 SLOAD SWAP1 POP DUP1 SWAP3 POP POP POP SWAP2 SWAP1 POP JUMP JUMPDEST DUP3 DUP1 SLOAD PUSH1 0x1 DUP2 PUSH1 0x1 AND ISZERO PUSH2 0x100 MUL SUB AND PUSH1 0x2 SWAP1 DIV SWAP1 PUSH1 0x0 MSTORE PUSH1 0x20 PUSH1 0x0 KECCAK256 SWAP1 PUSH1 0x1F ADD PUSH1 0x20 SWAP1 DIV DUP2 ADD SWAP3 DUP3 PUSH1 0x1F LT PUSH2 0x4B6 JUMPI DUP1 MLOAD PUSH1 0xFF NOT AND DUP4 DUP1 ADD OR DUP6 SSTORE PUSH2 0x4E4 JUMP JUMPDEST DUP3 DUP1 ADD PUSH1 0x1 ADD DUP6 SSTORE DUP3 ISZERO PUSH2 0x4E4 JUMPI SWAP2 DUP3 ADD JUMPDEST DUP3 DUP2 GT ISZERO PUSH2 0x4E3 JUMPI DUP3 MLOAD DUP3 SSTORE SWAP2 PUSH1 0x20 ADD SWAP2 SWAP1 PUSH1 0x1 ADD SWAP1 PUSH2 0x4C8 JUMP JUMPDEST JUMPDEST POP SWAP1 POP PUSH2 0x4F1 SWAP2 SWAP1 PUSH2 0x4F5 JUMP JUMPDEST POP SWAP1 JUMP JUMPDEST PUSH2 0x517 SWAP2 SWAP1 JUMPDEST DUP1 DUP3 GT ISZERO PUSH2 0x513 JUMPI PUSH1 0x0 DUP2 PUSH1 0x0 SWAP1 SSTORE POP PUSH1 0x1 ADD PUSH2 0x4FB JUMP JUMPDEST POP SWAP1 JUMP JUMPDEST SWAP1 JUMP JUMPDEST PUSH1 0x0 DUP3 PUSH1 0x1F DUP4 ADD SLT PUSH2 0x52B JUMPI PUSH1 0x0 DUP1 REVERT JUMPDEST DUP2 CALLDATALOAD PUSH2 0x53E PUSH2 0x539 DUP3 PUSH2 0x8DE JUMP JUMPDEST PUSH2 0x8B1 JUMP JUMPDEST SWAP2 POP DUP1 DUP3 MSTORE PUSH1 0x20 DUP4 ADD PUSH1 0x20 DUP4 ADD DUP6 DUP4 DUP4 ADD GT ISZERO PUSH2 0x55A JUMPI PUSH1 0x0 DUP1 REVERT JUMPDEST PUSH2 0x565 DUP4 DUP3 DUP5 PUSH2 0x9CC JUMP JUMPDEST POP POP POP SWAP3 SWAP2 POP POP JUMP JUMPDEST PUSH1 0x0 DUP2 CALLDATALOAD SWAP1 POP PUSH2 0x57D DUP2 PUSH2 0xA1F JUMP JUMPDEST SWAP3 SWAP2 POP POP JUMP JUMPDEST PUSH1 0x0 PUSH1 0x20 DUP3 DUP5 SUB SLT ISZERO PUSH2 0x595 JUMPI PUSH1 0x0 DUP1 REVERT JUMPDEST PUSH1 0x0 DUP3 ADD CALLDATALOAD PUSH8 0xFFFFFFFFFFFFFFFF DUP2 GT ISZERO PUSH2 0x5AF JUMPI PUSH1 0x0 DUP1 REVERT JUMPDEST PUSH2 0x5BB DUP5 DUP3 DUP6 ADD PUSH2 0x51A JUMP JUMPDEST SWAP2 POP POP SWAP3 SWAP2 POP POP JUMP JUMPDEST PUSH1 0x0 DUP1 PUSH1 0x40 DUP4 DUP6 SUB SLT ISZERO PUSH2 0x5D7 JUMPI PUSH1 0x0 DUP1 REVERT JUMPDEST PUSH1 0x0 DUP4 ADD CALLDATALOAD PUSH8 0xFFFFFFFFFFFFFFFF DUP2 GT ISZERO PUSH2 0x5F1 JUMPI PUSH1 0x0 DUP1 REVERT JUMPDEST PUSH2 0x5FD DUP6 DUP3 DUP7 ADD PUSH2 0x51A JUMP JUMPDEST SWAP3 POP POP PUSH1 0x20 PUSH2 0x60E DUP6 DUP3 DUP7 ADD PUSH2 0x56E JUMP JUMPDEST SWAP2 POP POP SWAP3 POP SWAP3 SWAP1 POP JUMP JUMPDEST PUSH1 0x0 PUSH2 0x624 DUP4 DUP4 PUSH2 0x729 JUMP JUMPDEST SWAP1 POP SWAP3 SWAP2 POP POP JUMP JUMPDEST PUSH2 0x635 DUP2 PUSH2 0x986 JUMP JUMPDEST DUP3 MSTORE POP POP JUMP JUMPDEST PUSH1 0x0 PUSH2 0x646 DUP3 PUSH2 0x91A JUMP JUMPDEST PUSH2 0x650 DUP2 DUP6 PUSH2 0x948 JUMP JUMPDEST SWAP4 POP DUP4 PUSH1 0x20 DUP3 MUL DUP6 ADD PUSH2 0x662 DUP6 PUSH2 0x90A JUMP JUMPDEST DUP1 PUSH1 0x0 JUMPDEST DUP6 DUP2 LT ISZERO PUSH2 0x69E JUMPI DUP5 DUP5 SUB DUP10 MSTORE DUP2 MLOAD PUSH2 0x67F DUP6 DUP3 PUSH2 0x618 JUMP JUMPDEST SWAP5 POP PUSH2 0x68A DUP4 PUSH2 0x93B JUMP JUMPDEST SWAP3 POP PUSH1 0x20 DUP11 ADD SWAP10 POP POP PUSH1 0x1 DUP2 ADD SWAP1 POP PUSH2 0x666 JUMP JUMPDEST POP DUP3 SWAP8 POP DUP8 SWAP6 POP POP POP POP POP POP SWAP3 SWAP2 POP POP JUMP JUMPDEST PUSH2 0x6B9 DUP2 PUSH2 0x998 JUMP JUMPDEST DUP3 MSTORE POP POP JUMP JUMPDEST PUSH1 0x0 PUSH2 0x6CA DUP3 PUSH2 0x930 JUMP JUMPDEST PUSH2 0x6D4 DUP2 DUP6 PUSH2 0x96A JUMP JUMPDEST SWAP4 POP PUSH2 0x6E4 DUP2 DUP6 PUSH1 0x20 DUP7 ADD PUSH2 0x9DB JUMP JUMPDEST PUSH2 0x6ED DUP2 PUSH2 0xA0E JUMP JUMPDEST DUP5 ADD SWAP2 POP POP SWAP3 SWAP2 POP POP JUMP JUMPDEST PUSH1 0x0 PUSH2 0x703 DUP3 PUSH2 0x930 JUMP JUMPDEST PUSH2 0x70D DUP2 DUP6 PUSH2 0x97B JUMP JUMPDEST SWAP4 POP PUSH2 0x71D DUP2 DUP6 PUSH1 0x20 DUP7 ADD PUSH2 0x9DB JUMP JUMPDEST DUP1 DUP5 ADD SWAP2 POP POP SWAP3 SWAP2 POP POP JUMP JUMPDEST PUSH1 0x0 PUSH2 0x734 DUP3 PUSH2 0x925 JUMP JUMPDEST PUSH2 0x73E DUP2 DUP6 PUSH2 0x959 JUMP JUMPDEST SWAP4 POP PUSH2 0x74E DUP2 DUP6 PUSH1 0x20 DUP7 ADD PUSH2 0x9DB JUMP JUMPDEST PUSH2 0x757 DUP2 PUSH2 0xA0E JUMP JUMPDEST DUP5 ADD SWAP2 POP POP SWAP3 SWAP2 POP POP JUMP JUMPDEST PUSH1 0x0 PUSH2 0x76F PUSH1 0x2D DUP4 PUSH2 0x96A JUMP JUMPDEST SWAP2 POP PUSH32 0x4E6F207469656E6573207065726D69736F73207061726120656A656375746172 PUSH1 0x0 DUP4 ADD MSTORE PUSH32 0x20657374612066756E63696F6E00000000000000000000000000000000000000 PUSH1 0x20 DUP4 ADD MSTORE PUSH1 0x40 DUP3 ADD SWAP1 POP SWAP2 SWAP1 POP JUMP JUMPDEST PUSH2 0x7D1 DUP2 PUSH2 0x9C2 JUMP JUMPDEST DUP3 MSTORE POP POP JUMP JUMPDEST PUSH1 0x0 PUSH2 0x7E3 DUP3 DUP5 PUSH2 0x6F8 JUMP JUMPDEST SWAP2 POP DUP2 SWAP1 POP SWAP3 SWAP2 POP POP JUMP JUMPDEST PUSH1 0x0 PUSH1 0x20 DUP3 ADD SWAP1 POP PUSH2 0x803 PUSH1 0x0 DUP4 ADD DUP5 PUSH2 0x62C JUMP JUMPDEST SWAP3 SWAP2 POP POP JUMP JUMPDEST PUSH1 0x0 PUSH1 0x20 DUP3 ADD SWAP1 POP DUP2 DUP2 SUB PUSH1 0x0 DUP4 ADD MSTORE PUSH2 0x823 DUP2 DUP5 PUSH2 0x63B JUMP JUMPDEST SWAP1 POP SWAP3 SWAP2 POP POP JUMP JUMPDEST PUSH1 0x0 PUSH1 0x40 DUP3 ADD SWAP1 POP PUSH2 0x840 PUSH1 0x0 DUP4 ADD DUP6 PUSH2 0x6B0 JUMP JUMPDEST PUSH2 0x84D PUSH1 0x20 DUP4 ADD DUP5 PUSH2 0x7C8 JUMP JUMPDEST SWAP4 SWAP3 POP POP POP JUMP JUMPDEST PUSH1 0x0 PUSH1 0x20 DUP3 ADD SWAP1 POP DUP2 DUP2 SUB PUSH1 0x0 DUP4 ADD MSTORE PUSH2 0x86E DUP2 DUP5 PUSH2 0x6BF JUMP JUMPDEST SWAP1 POP SWAP3 SWAP2 POP POP JUMP JUMPDEST PUSH1 0x0 PUSH1 0x20 DUP3 ADD SWAP1 POP DUP2 DUP2 SUB PUSH1 0x0 DUP4 ADD MSTORE PUSH2 0x88F DUP2 PUSH2 0x762 JUMP JUMPDEST SWAP1 POP SWAP2 SWAP1 POP JUMP JUMPDEST PUSH1 0x0 PUSH1 0x20 DUP3 ADD SWAP1 POP PUSH2 0x8AB PUSH1 0x0 DUP4 ADD DUP5 PUSH2 0x7C8 JUMP JUMPDEST SWAP3 SWAP2 POP POP JUMP JUMPDEST PUSH1 0x0 PUSH1 0x40 MLOAD SWAP1 POP DUP2 DUP2 ADD DUP2 DUP2 LT PUSH8 0xFFFFFFFFFFFFFFFF DUP3 GT OR ISZERO PUSH2 0x8D4 JUMPI PUSH1 0x0 DUP1 REVERT JUMPDEST DUP1 PUSH1 0x40 MSTORE POP SWAP2 SWAP1 POP JUMP JUMPDEST PUSH1 0x0 PUSH8 0xFFFFFFFFFFFFFFFF DUP3 GT ISZERO PUSH2 0x8F5 JUMPI PUSH1 0x0 DUP1 REVERT JUMPDEST PUSH1 0x1F NOT PUSH1 0x1F DUP4 ADD AND SWAP1 POP PUSH1 0x20 DUP2 ADD SWAP1 POP SWAP2 SWAP1 POP JUMP JUMPDEST PUSH1 0x0 DUP2 SWAP1 POP PUSH1 0x20 DUP3 ADD SWAP1 POP SWAP2 SWAP1 POP JUMP JUMPDEST PUSH1 0x0 DUP2 MLOAD SWAP1 POP SWAP2 SWAP1 POP JUMP JUMPDEST PUSH1 0x0 DUP2 MLOAD SWAP1 POP SWAP2 SWAP1 POP JUMP JUMPDEST PUSH1 0x0 DUP2 MLOAD SWAP1 POP SWAP2 SWAP1 POP JUMP JUMPDEST PUSH1 0x0 PUSH1 0x20 DUP3 ADD SWAP1 POP SWAP2 SWAP1 POP JUMP JUMPDEST PUSH1 0x0 DUP3 DUP3 MSTORE PUSH1 0x20 DUP3 ADD SWAP1 POP SWAP3 SWAP2 POP POP JUMP JUMPDEST PUSH1 0x0 DUP3 DUP3 MSTORE PUSH1 0x20 DUP3 ADD SWAP1 POP SWAP3 SWAP2 POP POP JUMP JUMPDEST PUSH1 0x0 DUP3 DUP3 MSTORE PUSH1 0x20 DUP3 ADD SWAP1 POP SWAP3 SWAP2 POP POP JUMP JUMPDEST PUSH1 0x0 DUP2 SWAP1 POP SWAP3 SWAP2 POP POP JUMP JUMPDEST PUSH1 0x0 PUSH2 0x991 DUP3 PUSH2 0x9A2 JUMP JUMPDEST SWAP1 POP SWAP2 SWAP1 POP JUMP JUMPDEST PUSH1 0x0 DUP2 SWAP1 POP SWAP2 SWAP1 POP JUMP JUMPDEST PUSH1 0x0 PUSH20 0xFFFFFFFFFFFFFFFFFFFFFFFFFFFFFFFFFFFFFFFF DUP3 AND SWAP1 POP SWAP2 SWAP1 POP JUMP JUMPDEST PUSH1 0x0 DUP2 SWAP1 POP SWAP2 SWAP1 POP JUMP JUMPDEST DUP3 DUP2 DUP4 CALLDATACOPY PUSH1 0x0 DUP4 DUP4 ADD MSTORE POP POP POP JUMP JUMPDEST PUSH1 0x0 JUMPDEST DUP4 DUP2 LT ISZERO PUSH2 0x9F9 JUMPI DUP1 DUP3 ADD MLOAD DUP2 DUP5 ADD MSTORE PUSH1 0x20 DUP2 ADD SWAP1 POP PUSH2 0x9DE JUMP JUMPDEST DUP4 DUP2 GT ISZERO PUSH2 0xA08 JUMPI PUSH1 0x0 DUP5 DUP5 ADD MSTORE JUMPDEST POP POP POP POP JUMP JUMPDEST PUSH1 0x0 PUSH1 0x1F NOT PUSH1 0x1F DUP4 ADD AND SWAP1 POP SWAP2 SWAP1 POP JUMP JUMPDEST PUSH2 0xA28 DUP2 PUSH2 0x9C2 JUMP JUMPDEST DUP2 EQ PUSH2 0xA33 JUMPI PUSH1 0x0 DUP1 REVERT JUMPDEST POP JUMP INVALID LOG2 PUSH5 0x6970667358 0x22 SLT KECCAK256 0x1F JUMP 0xAA PUSH10 0xAB421822BA2ADDAD690B 0xAD SWAP11 SWAP1 0xB1 0xB3 CALL 0xB3 0xE5 COINBASE MSTORE8 0x1E 0xDE 0x4D 0xF 0x2D JUMPI SAR PUSH30 0x64736F6C6343000600003300000000000000000000000000000000000000 "
		},
		"gasEstimates": {
			"creation": {
				"codeDepositCost": "533600",
				"executionCost": "21434",
				"totalCost": "555034"
			},
			"external": {
				"Profesor()": "1236",
				"evaluar(string,uint256)": "infinite",
				"revision(string)": "infinite",
				"verNotas(string)": "infinite",
				"verRevisiones()": "infinite"
			}
		},
		"methodIdentifiers": {
			"Profesor()": "a45e3a28",
			"evaluar(string,uint256)": "383bebae",
			"revision(string)": "ca981d91",
			"verNotas(string)": "deafddae",
			"verRevisiones()": "398dfa79"
		}
	},
	"abi": [
		{
			"inputs": [],
			"stateMutability": "nonpayable",
			"type": "constructor"
		},
		{
			"anonymous": false,
			"inputs": [
				{
					"indexed": false,
					"internalType": "bytes32",
					"name": "",
					"type": "bytes32"
				},
				{
					"indexed": false,
					"internalType": "uint256",
					"name": "",
					"type": "uint256"
				}
			],
			"name": "alumno_evaluado",
			"type": "event"
		},
		{
			"anonymous": false,
			"inputs": [
				{
					"indexed": false,
					"internalType": "string",
					"name": "",
					"type": "string"
				}
			],
			"name": "evento_revision",
			"type": "event"
		},
		{
			"inputs": [],
			"name": "Profesor",
			"outputs": [
				{
					"internalType": "address",
					"name": "",
					"type": "address"
				}
			],
			"stateMutability": "view",
			"type": "function"
		},
		{
			"inputs": [
				{
					"internalType": "string",
					"name": "_idAlumno",
					"type": "string"
				},
				{
					"internalType": "uint256",
					"name": "_nota",
					"type": "uint256"
				}
			],
			"name": "evaluar",
			"outputs": [],
			"stateMutability": "nonpayable",
			"type": "function"
		},
		{
			"inputs": [
				{
					"internalType": "string",
					"name": "_idAlumno",
					"type": "string"
				}
			],
			"name": "revision",
			"outputs": [],
			"stateMutability": "nonpayable",
			"type": "function"
		},
		{
			"inputs": [
				{
					"internalType": "string",
					"name": "_idAlumno",
					"type": "string"
				}
			],
			"name": "verNotas",
			"outputs": [
				{
					"internalType": "uint256",
					"name": "",
					"type": "uint256"
				}
			],
			"stateMutability": "view",
			"type": "function"
		},
		{
			"inputs": [],
			"name": "verRevisiones",
			"outputs": [
				{
					"internalType": "string[]",
					"name": "",
					"type": "string[]"
				}
			],
			"stateMutability": "view",
			"type": "function"
		}
	]
}